:100000000C942A000C943F000C943F000C943F0089
:100010000C943F000C943F000C943F000C943F0064
:100020000C943F000C943F000C943F000C943F0054
:100030000C943F000C943F000C943F000C943F0044
:100040000C943F000C943F000C943F000C943F0034
:100050000C943F0011241FBECFE5D8E0DEBFCDBF1A
:1000600010E0A0E6B0E0E2E5F1E002C005900D92FC
:10007000A037B107D9F70E9493000C94A7000C9405
:1000800000004423B1F04130C9F5E82FF0E0EE0F55
:10009000FF1FE05AFF4F0190F081E02D208181E0A9
:1000A00090E002C0880F991F6A95E2F7822B808347
:1000B000089590E0FC01EE0FFF1FE05AFF4F019002
:1000C000F081E02D308141E050E002C0440F551F27
:1000D0006A95E2F7642F609536233083213071F4FE
:1000E00020B72B7F20BF880F991FFC01E859FF4FD5
:1000F0000190F081E02D8081482B40830895E82F06
:10010000F0E0EE0FFF1FE859FF4F0190F081E02D66
:10011000208181E090E002C0880F991F6A95E2F784
:1001200082278083089520E041E067E081E00E941B
:10013000410067E081E00E947F002FE986E891E0BE
:10014000215080409040E1F700C00000F2CFF894C9
:02015000FFCFDF
:100152003A003700340031003B00380035003200ED
:00000001FF
